{
  "_format": "hh-sol-artifact-1",
  "contractName": "BlindHire",
  "sourceName": "contracts/BlindHire.sol",
  "abi": [
    {
      "inputs": [
        {
          "internalType": "bytes32",
          "name": "handle",
          "type": "bytes32"
        },
        {
          "internalType": "address",
          "name": "sender",
          "type": "address"
        }
      ],
      "name": "SenderNotAllowedToUseHandle",
      "type": "error"
    },
    {
      "inputs": [],
      "name": "ZamaProtocolUnsupported",
      "type": "error"
    },
    {
      "anonymous": false,
      "inputs": [
        {
          "indexed": true,
          "internalType": "uint256",
          "name": "applicationId",
          "type": "uint256"
        },
        {
          "indexed": true,
          "internalType": "uint256",
          "name": "roleId",
          "type": "uint256"
        },
        {
          "indexed": true,
          "internalType": "address",
          "name": "candidate",
          "type": "address"
        }
      ],
      "name": "ApplicationSubmitted",
      "type": "event"
    },
    {
      "anonymous": false,
      "inputs": [
        {
          "indexed": true,
          "internalType": "uint256",
          "name": "applicationId",
          "type": "uint256"
        }
      ],
      "name": "MatchComputed",
      "type": "event"
    },
    {
      "anonymous": false,
      "inputs": [
        {
          "indexed": true,
          "internalType": "uint256",
          "name": "roleId",
          "type": "uint256"
        },
        {
          "indexed": true,
          "internalType": "address",
          "name": "employer",
          "type": "address"
        },
        {
          "indexed": false,
          "internalType": "string",
          "name": "title",
          "type": "string"
        }
      ],
      "name": "RolePosted",
      "type": "event"
    },
    {
      "inputs": [],
      "name": "applicationCount",
      "outputs": [
        {
          "internalType": "uint256",
          "name": "",
          "type": "uint256"
        }
      ],
      "stateMutability": "view",
      "type": "function"
    },
    {
      "inputs": [
        {
          "internalType": "uint256",
          "name": "",
          "type": "uint256"
        }
      ],
      "name": "applications",
      "outputs": [
        {
          "internalType": "address",
          "name": "candidate",
          "type": "address"
        },
        {
          "internalType": "uint256",
          "name": "roleId",
          "type": "uint256"
        },
        {
          "internalType": "ebool",
          "name": "matched",
          "type": "bytes32"
        },
        {
          "internalType": "ebool",
          "name": "yearsOk",
          "type": "bytes32"
        },
        {
          "internalType": "ebool",
          "name": "scoreOk",
          "type": "bytes32"
        },
        {
          "internalType": "bool",
          "name": "computed",
          "type": "bool"
        }
      ],
      "stateMutability": "view",
      "type": "function"
    },
    {
      "inputs": [
        {
          "internalType": "uint256",
          "name": "roleId",
          "type": "uint256"
        },
        {
          "internalType": "externalEuint32",
          "name": "_years",
          "type": "bytes32"
        },
        {
          "internalType": "bytes",
          "name": "_yearsProof",
          "type": "bytes"
        },
        {
          "internalType": "externalEuint32",
          "name": "_score",
          "type": "bytes32"
        },
        {
          "internalType": "bytes",
          "name": "_scoreProof",
          "type": "bytes"
        }
      ],
      "name": "applyForRole",
      "outputs": [
        {
          "internalType": "uint256",
          "name": "",
          "type": "uint256"
        }
      ],
      "stateMutability": "nonpayable",
      "type": "function"
    },
    {
      "inputs": [
        {
          "internalType": "address",
          "name": "",
          "type": "address"
        },
        {
          "internalType": "uint256",
          "name": "",
          "type": "uint256"
        }
      ],
      "name": "candidateApplications",
      "outputs": [
        {
          "internalType": "uint256",
          "name": "",
          "type": "uint256"
        }
      ],
      "stateMutability": "view",
      "type": "function"
    },
    {
      "inputs": [],
      "name": "confidentialProtocolId",
      "outputs": [
        {
          "internalType": "uint256",
          "name": "",
          "type": "uint256"
        }
      ],
      "stateMutability": "view",
      "type": "function"
    },
    {
      "inputs": [
        {
          "internalType": "address",
          "name": "",
          "type": "address"
        },
        {
          "internalType": "uint256",
          "name": "",
          "type": "uint256"
        }
      ],
      "name": "employerRoles",
      "outputs": [
        {
          "internalType": "uint256",
          "name": "",
          "type": "uint256"
        }
      ],
      "stateMutability": "view",
      "type": "function"
    },
    {
      "inputs": [
        {
          "internalType": "address",
          "name": "candidate",
          "type": "address"
        }
      ],
      "name": "getCandidateApplications",
      "outputs": [
        {
          "internalType": "uint256[]",
          "name": "",
          "type": "uint256[]"
        }
      ],
      "stateMutability": "view",
      "type": "function"
    },
    {
      "inputs": [
        {
          "internalType": "address",
          "name": "employer",
          "type": "address"
        }
      ],
      "name": "getEmployerRoles",
      "outputs": [
        {
          "internalType": "uint256[]",
          "name": "",
          "type": "uint256[]"
        }
      ],
      "stateMutability": "view",
      "type": "function"
    },
    {
      "inputs": [
        {
          "internalType": "uint256",
          "name": "appId",
          "type": "uint256"
        }
      ],
      "name": "getMatchDetails",
      "outputs": [
        {
          "internalType": "ebool",
          "name": "yearsOk",
          "type": "bytes32"
        },
        {
          "internalType": "ebool",
          "name": "scoreOk",
          "type": "bytes32"
        }
      ],
      "stateMutability": "view",
      "type": "function"
    },
    {
      "inputs": [
        {
          "internalType": "uint256",
          "name": "appId",
          "type": "uint256"
        }
      ],
      "name": "getMatchResult",
      "outputs": [
        {
          "internalType": "ebool",
          "name": "",
          "type": "bytes32"
        }
      ],
      "stateMutability": "view",
      "type": "function"
    },
    {
      "inputs": [
        {
          "internalType": "uint256",
          "name": "roleId",
          "type": "uint256"
        }
      ],
      "name": "getRoleMetadata",
      "outputs": [
        {
          "internalType": "string",
          "name": "title",
          "type": "string"
        },
        {
          "internalType": "string",
          "name": "description",
          "type": "string"
        },
        {
          "internalType": "string",
          "name": "category",
          "type": "string"
        },
        {
          "internalType": "address",
          "name": "employer",
          "type": "address"
        },
        {
          "internalType": "bool",
          "name": "active",
          "type": "bool"
        }
      ],
      "stateMutability": "view",
      "type": "function"
    },
    {
      "inputs": [
        {
          "internalType": "externalEuint32",
          "name": "_minYears",
          "type": "bytes32"
        },
        {
          "internalType": "bytes",
          "name": "_minYearsProof",
          "type": "bytes"
        },
        {
          "internalType": "externalEuint32",
          "name": "_minScore",
          "type": "bytes32"
        },
        {
          "internalType": "bytes",
          "name": "_minScoreProof",
          "type": "bytes"
        },
        {
          "internalType": "string",
          "name": "_title",
          "type": "string"
        },
        {
          "internalType": "string",
          "name": "_description",
          "type": "string"
        },
        {
          "internalType": "string",
          "name": "_category",
          "type": "string"
        }
      ],
      "name": "postRole",
      "outputs": [
        {
          "internalType": "uint256",
          "name": "",
          "type": "uint256"
        }
      ],
      "stateMutability": "nonpayable",
      "type": "function"
    },
    {
      "inputs": [],
      "name": "roleCount",
      "outputs": [
        {
          "internalType": "uint256",
          "name": "",
          "type": "uint256"
        }
      ],
      "stateMutability": "view",
      "type": "function"
    },
    {
      "inputs": [
        {
          "internalType": "uint256",
          "name": "",
          "type": "uint256"
        }
      ],
      "name": "roles",
      "outputs": [
        {
          "internalType": "address",
          "name": "employer",
          "type": "address"
        },
        {
          "internalType": "euint32",
          "name": "minYears",
          "type": "bytes32"
        },
        {
          "internalType": "euint32",
          "name": "minScore",
          "type": "bytes32"
        },
        {
          "internalType": "bool",
          "name": "active",
          "type": "bool"
        },
        {
          "internalType": "string",
          "name": "title",
          "type": "string"
        },
        {
          "internalType": "string",
          "name": "description",
          "type": "string"
        },
        {
          "internalType": "string",
          "name": "category",
          "type": "string"
        }
      ],
      "stateMutability": "view",
      "type": "function"
    }
  ],
  "bytecode": "0x604060808152346200021e576200001562000259565b50466001036200012f576200002962000259565b506200003462000223565b73ca2e8f1f656cd25c01f05d0b243ab1ecd4a8ffb6815273d82385dada1ae3e969447f20a3164f6213100e7560208201527377627828a55156b04ac0dc0eb30467f1a552bb03828201525b80517f9e7b61f58c47dc699ac88507c4f5bb9f121c03808c5676a8078fe583e464970080546001600160a01b03199081166001600160a01b039384161790915560208301517f9e7b61f58c47dc699ac88507c4f5bb9f121c03808c5676a8078fe583e464970180548316918416919091179055918301517f9e7b61f58c47dc699ac88507c4f5bb9f121c03808c5676a8078fe583e464970280549093169116179055516117c69081620002798239f35b4662aa36a7036200019f576200014462000259565b506200014f62000223565b73f0ffdc93b7e186bc2f8cb3daa75d86d1930a433d81527392c920834ec8941d2c77d188936e1f7a6f49c127602082015273be0e383937d564d7ff0bc3b46c51f0bf8d5c311a828201526200007f565b46617a69036200020e57620001b362000259565b50620001be62000223565b7350157cffd6bbfa2dece204a89ec419c23ef5755d815273e3a9105a3a932253a70f126eb1e3b589c643dd24602082015273901f8942346f7ab3a01f6d7613119bca447bb030828201526200007f565b516373cac13b60e01b8152600490fd5b600080fd5b60405190606082016001600160401b038111838210176200024357604052565b634e487b7160e01b600052604160045260246000fd5b6200026362000223565b9060008252600060208301526000604083015256fe6080604052600436101561001257600080fd5b60003560e01c80630dfa007f14610f5a5780632d90fe5f14610eb75780632df5d12614610e41578063301f74ef14610dc6578063356ec844146109d057806358ba7c4b146103b45780638927b03014610391578063a7bf0dd114610339578063bfda4a4914610285578063cfe3d27a146101f2578063ddf96358146101d4578063dfefadff14610164578063e2aad4a0146101465763e8aed12e146100b657600080fd5b3461014157602080600319360112610141576001600160a01b036100d8610fa4565b1660005260046020526040600020906040519081602084549182815201936000526020600020916000905b82821061012a576101268561011a818903826110de565b60405191829182611028565b0390f35b835486529485019460019384019390910190610103565b600080fd5b34610141576000366003190112610141576020600154604051908152f35b3461014157602036600319011261014157600435600052600360205260c0604060002060018060a01b0381541690600181015490600281015460038201549060ff6005600485015494015416936040519586526020860152604085015260608401526080830152151560a0820152f35b34610141576000366003190112610141576020600054604051908152f35b346101415760208060031936011261014157600435806000526003825261022360ff600560406000200154166111a4565b806000526003825261024f604060002060018060a01b03808254163314918215610267575b50506111e3565b60005260038152600260406000200154604051908152f35b60019192500154600052600284526040600020541633148480610248565b34610141576020366003190112610141576004356000526002602052604060002060018060a01b0381541661012660018301549261032b60028201549161031d60ff6003830154166102d9600484016110ff565b906102f260066102eb600587016110ff565b95016110ff565b95604051998a998a5260208a015260408901521515606088015260e0608088015260e0870190610fe8565b9085820360a0870152610fe8565b9083820360c0850152610fe8565b3461014157604036600319011261014157610352610fa4565b6001600160a01b03166000908152600560205260409020805460243591908210156101415760209161038391610fba565b90546040519160031b1c8152f35b346101415760003660031901126101415760206103ac611625565b604051908152f35b346101415760e0366003190112610141576024356001600160401b038111610141576103e4903690600401611064565b906064356001600160401b03811161014157610404903690600401611064565b90916084356001600160401b03811161014157610425903690600401611064565b92909460a4356001600160401b03811161014157610447903690600401611064565b93909560c4356001600160401b0381116101415761049891610488610480610476610490943690600401611064565b9690973691611220565b6004356112c5565b953691611220565b6044356112c5565b8384156109bd575b6104ab903090611656565b8081156109aa575b6104be903090611656565b600054966104cb88611266565b6000556040519560e08701928784106001600160401b038511176108065761052b9661051f94604052338952602089015260408801526001606088015261051336898c611220565b60808801523691611220565b60a08501523691611220565b60c082015282600052600260205260406000209060018060a01b038151166bffffffffffffffffffffffff60a01b835416178255602081015160018301556040810151600283015561059260608201511515600384019060ff801983541691151516179055565b60808101518051906001600160401b0382116108065781906105b76004860154611091565b601f8111610957575b50602090601f83116001146108ea576000926108df575b50508160011b916000199060031b1c19161760048301555b60a08101518051906001600160401b038211610806576106126005850154611091565b601f8111610898575b50602090601f83116001146108275760c09392916000918361081c575b50508160011b916000199060031b1c19161760058401555b01519081516001600160401b038111610806576106706006830154611091565b601f81116107bb575b509484916020968794601f82116001146107295790807f69b1b4a9bb6259ba33ac7dd17be02d60519dfbe4e9a86eb84e478f47b008570e959660069360009261071e575b50508160011b916000199060031b1c1916179101555b33600052600486526106e983604060002061128b565b8360405191878352818884015260408301376000604085830101526040813395601f80199101168101030190a3604051908152f35b015190508a806106bd565b60068301600052886000209060005b601f19841681106107a15750916001917f69b1b4a9bb6259ba33ac7dd17be02d60519dfbe4e9a86eb84e478f47b008570e969760069483601f19811610610788575b505050811b019101556106d3565b015160001960f88460031b161c191690558a808061077a565b818801518355968a01968996506001909201918a01610738565b600683016000526020600020601f830160051c810191602084106107fc575b601f0160051c01905b8181106107f05750610679565b600081556001016107e3565b90915081906107da565b634e487b7160e01b600052604160045260246000fd5b015190508880610638565b90601f198316916005860160005260206000209260005b818110610880575091600193918560c097969410610867575b505050811b016005840155610650565b015160001960f88460031b161c19169055888080610857565b9293602060018192878601518155019501930161083e565b600585016000526020600020601f840160051c8101602085106108d8575b601f830160051c820181106108cc57505061061b565b600081556001016108b6565b50806108b6565b0151905087806105d7565b600486016000908152602081209350601f198516905b81811061093f5750908460019594939210610926575b505050811b0160048301556105ef565b015160001960f88460031b161c19169055878080610916565b92936020600181928786015181550195019301610900565b909150600485016000526020600020601f840160051c8101602085106109a3575b90849392915b601f830160051c820181106109945750506105c0565b6000815585945060010161097e565b5080610978565b506104be6109b6611720565b90506104b3565b506104ab6109c9611720565b90506104a0565b346101415760a0366003190112610141576001600160401b0360043560443582811161014157610a04903690600401611064565b9260843581811161014157610a1d903690600401611064565b92908460005260029160209683885260ff6003604060002001541615610d8c57610a8e610a77610a6f610aa995610a67610a5f610a8e97610a93973691611220565b6024356112c5565b993691611220565b6064356112c5565b9688600052858a52600160406000200154906114d9565b61158b565b94866000528388528360406000200154906114d9565b91828493851580610d7c575b82159081610d6c575b8960018060a01b039460648660008051602061177183398151915254169960006040519b8c94859363d99882d560e01b8552600485015260248401528160448401525af1968715610d6057600097610d31575b50610b7a87158881610d1e575b610b29903090611656565b8983610d0b575b610b3b903090611656565b8484610cf8575b610b4d903090611656565b8881610ce5575b610b5f903390611656565b8a600052878c528560406000205416908990610cd757611656565b8790610cc4575b610b8c903390611656565b8190610cb1575b610b9e903390611656565b60015495610bab87611266565b6001556040519460c086019485118686101761080657610c45966005956040523387528a87018a815260408801918252606088019384526080880194855260a0880195600187528a60005260038d5260406000209851166bffffffffffffffffffffffff60a01b895416178855516001880155519086015551600385015551600484015551151591019060ff801983541691151516179055565b3360005260058352610c5b81604060002061128b565b604051913390827ffdb73f695bc6f43d03128339b6d99121833f5cb8d65f8cb3ffc6abe2e08a0a5b600080a4807fa5fe8010e8a0b12281d6b09db83b2d798289c40d8b834cde62aafc2a4097ae39600080a28152f35b50610b9e610cbd6116d1565b9050610b93565b50610b8c610cd06116d1565b9050610b81565b50610ce06116d1565b611656565b50610b5f610cf16116d1565b9050610b54565b50610b4d610d046116d1565b9050610b42565b50610b3b610d176116d1565b9050610b30565b50610b29610d2a6116d1565b9050610b1e565b9096508981813d8311610d59575b610d4981836110de565b810103126101415751958a610b11565b503d610d3f565b6040513d6000823e3d90fd5b9250610d766116d1565b92610abe565b9450610d866116d1565b94610ab5565b60405162461bcd60e51b8152600481018990526012602482015271526f6c65206973206e6f742061637469766560701b6044820152606490fd5b3461014157602080600319360112610141576001600160a01b03610de8610fa4565b1660005260056020526040600020906040519081602084549182815201936000526020600020916000905b828210610e2a576101268561011a818903826110de565b835486529485019460019384019390910190610e13565b3461014157602036600319011261014157600435806000526003602052610e7260ff600560406000200154166111a4565b806000526003602052610e9360018060a01b036040600020541633146111e3565b60005260036020526040806000206004600382015491015482519182526020820152f35b34610141576020366003190112610141576004356000526002602052610f2d604060002060018060a01b0381541660ff600383015416610f49610efc600485016110ff565b93610f3b610f186006610f11600585016110ff565b93016110ff565b9160405197889760a0895260a0890190610fe8565b908782036020890152610fe8565b908582036040870152610fe8565b916060840152151560808301520390f35b3461014157604036600319011261014157610f73610fa4565b6001600160a01b03166000908152600460205260409020805460243591908210156101415760209161038391610fba565b600435906001600160a01b038216820361014157565b8054821015610fd25760005260206000200190600090565b634e487b7160e01b600052603260045260246000fd5b919082519283825260005b848110611014575050826000602080949584010152601f8019910116010190565b602081830181015184830182015201610ff3565b602090602060408183019282815285518094520193019160005b828110611050575050505090565b835185529381019392810192600101611042565b9181601f84011215610141578235916001600160401b038311610141576020838186019501011161014157565b90600182811c921680156110c1575b60208310146110ab57565b634e487b7160e01b600052602260045260246000fd5b91607f16916110a0565b6001600160401b03811161080657604052565b90601f801991011681019081106001600160401b0382111761080657604052565b9060405191826000825461111281611091565b908184526020946001916001811690816000146111825750600114611143575b505050611141925003836110de565b565b600090815285812095935091905b81831061116a5750506111419350820101388080611132565b85548884018501529485019487945091830191611151565b9250505061114194925060ff191682840152151560051b820101388080611132565b156111ab57565b60405162461bcd60e51b815260206004820152601060248201526f139bdd0818dbdb5c1d5d1959081e595d60821b6044820152606490fd5b156111ea57565b60405162461bcd60e51b815260206004820152600e60248201526d139bdd08185d5d1a1bdc9a5e995960921b6044820152606490fd5b9291926001600160401b0382116108065760405191611249601f8201601f1916602001846110de565b829481845281830111610141578281602093846000960137010152565b60001981146112755760010190565b634e487b7160e01b600052601160045260246000fd5b805468010000000000000000811015610806576112ad91600182018155610fba565b819291549060031b91821b91600019901b1916179055565b815190919015611404576000805160206117718339815191525460405163045fc19560e11b815260048101939093523360248401526080604484015282916001600160a01b039160209184918416908290611324906084830190610fe8565b60046064830152600096879103925af19283156113f95782936113c1575b507f9e7b61f58c47dc699ac88507c4f5bb9f121c03808c5676a8078fe583e4649700541690813b156113be57604051630f8e573b60e21b8152600481018490523360248201529181908390604490829084905af19081156113b257506113a6575090565b6113af906110cb565b90565b604051903d90823e3d90fd5b80fd5b9092506020813d6020116113f1575b816113dd602093836110de565b810103126113ed57519138611342565b5080fd5b3d91506113d0565b6040513d84823e3d90fd5b5080156114d0577f9e7b61f58c47dc699ac88507c4f5bb9f121c03808c5676a8078fe583e4649700546040516382027b6d60e01b81526004810183905233602482015290602090829060449082906001600160a01b03165afa908115610d6057600091611495575b50156114755790565b604051630276b5d960e01b81526004810191909152336024820152604490fd5b6020813d6020116114c8575b816114ae602093836110de565b810103126113ed57519081151582036113be57503861146c565b3d91506114a1565b506113af611720565b801561157d575b811561156d575b60018060a01b0360008051602061177183398151915254169160405191637210768160e01b835260048301526024820152602081606481600080968160448401525af19182156113b257809261153c57505090565b9091506020823d602011611565575b81611558602093836110de565b810103126113be57505190565b3d915061154b565b9050611577611720565b906114e7565b50611586611720565b6114e0565b8015611610575b60008051602061177183398151915254604051630f51ccfb60e41b81526004810192909252602090829060249082906000906001600160a01b03165af1908115610d60576000916115e1575090565b90506020813d602011611608575b816115fc602093836110de565b81010312610141575190565b3d91506115ef565b506000602061161d6116d1565b915050611592565b4660010361163257600190565b4662aa36a7036116425761271190565b617a69461461165057600090565b60001990565b7f9e7b61f58c47dc699ac88507c4f5bb9f121c03808c5676a8078fe583e4649700546001600160a01b031691823b1561014157604051635ca4b5b160e11b815260048101929092526001600160a01b03166024820152906000908290604490829084905af18015610d60576116c85750565b611141906110cb565b60018060a01b036000805160206117718339815191525416604051639cd07acb60e01b8152602081604481600080968160048401528160248401525af19182156113b257809261153c57505090565b60018060a01b036000805160206117718339815191525416604051639cd07acb60e01b815260208160448160008096816004840152600460248401525af19182156113b257809261153c5750509056fe9e7b61f58c47dc699ac88507c4f5bb9f121c03808c5676a8078fe583e4649701a26469706673582212206941398b47c60c6ef7a71c381e5b0a85fdcaf17423411bfbb06e5158b20753d864736f6c63430008180033",
  "linkReferences": {},
  "deployedLinkReferences": {}
}